:020000041000EA
:1000000000B5324B212058609868022188439860DF
:10001000D860186158612E4B002199600221596106
:100020000121F02299502B49196001219960352056
:1000300000F044F80222904214D00621196600F024
:1000400034F8196E01211966002018661A6600F04E
:100050002CF8196E196E196E052000F02FF8012189
:100060000842F9D1002199601B49196000215960AB
:100070001A491B48016001219960EB211966A021F2
:10008000196600F012F800219960164914480160C1
:100090000121996001BC002800D000471248134993
:1000A000086003C880F30888084703B5996A0420EC
:1000B0000142FBD001200142F8D103BD02B5186610
:1000C0001866FFF7F2FF186E186E02BD00000240BE
:1000D000000000180000070000035F00212200005C
:1000E000F4000018222000A00001001008ED00E03C
:1000F00000000000000000000000000074B24E7A12
:1001000000200420F7010010C3010010C5010010F9
:10011000C1010010C1010010C1010010C101001097
:10012000C1010010C1010010C1010010C701001081
:10013000C1010010C1010010C9010010CB01001065
:10014000CD010010CD010010CD010010CD01001037
:10015000CD010010CD010010CD010010CD01001027
:10016000CD010010CD010010CD010010CD01001017
:10017000CD010010CD010010CD010010CD01001007
:10018000CD010010CD010010CD010010CD010010F7
:10019000CD010010CD010010CD010010CD010010E7
:1001A000CD010010CD010010CD010010CD010010D7
:1001B000CD010010CD010010CD010010CD010010C7
:1001C00000BE00BE00BE00BE00BE00BE00F04BF888
:1001D000103800BEF2EB8871D8210010F421001015
:1001E0003402001090A31AE700202149086006C8D5
:1001F00081F3088810471F48006800282FD10DA4FC
:100200000ECC002902D000F012F8F9E71A491B4A77
:10021000002000E001C19142FCD1194988471949E9
:1002200088471949884700BEFDE701C901C29A42C3
:10023000FBD37047F4210010C000002070030020A1
:10024000A42400100000042000000420A4240010B6
:1002500000100420001004200000000070470B482C
:1002600001F004FB0047EFF30580C0B270470000C7
:1002700008ED00E0000000D07003002050080020CE
:10028000491300105903001039140010575600008C
:1002900006005250ABB3605340210010060052508C
:1002A000861C030250210010060052505422A29DC9
:1002B0006C21001005005250DE65F468A424001083
:1002C000F8B5C04610B5064C2378002B07D1054B76
:1002D000002B02D0044800E000BF0123237010BDB2
:1002E000700600200000000048200010044B10B5EC
:1002F000002B03D00349044800E000BF10BDC046F6
:1003000000000000740600204820001030B50500F1
:10031000002483B020000621013400F0DFF81C2CFB
:10032000F8D11B3C2900082300220A48009401F060
:10033000A9FD290002231A220648009401F0A2FD1B
:10034000002308220093290002480F3301F09AFD90
:1003500003B030BD00002050F0B5DE464E464546A5
:100360005746E0B5544987B0544801F027FD0121B4
:100370000400524801F004FD0600FFF7C7FF802388
:100380005B020293C0231B03049323000C33E2019E
:100390001B03134303934A4B22000593310002AB26
:1003A000464801F0B1FD3300012510339D40434C18
:1003B00063681D42FCD1414BB7009C463A00414B5B
:1003C0006244136199460123B3400192226860465A
:1003D000134323603C4901F0F1FC0121804637487A
:1003E00001F0CEFC0600FFF791FFC0231B039B46E4
:1003F00004934346424680270733D2011B0313432D
:100400000393324B424631002C487F02059302ABE6
:10041000029701F079FD0123B34022682C49134370
:100420002360264801F0CAFC01218246234801F0DE
:10043000A7FC8046FFF76AFF5B460493534652468B
:100440000A33D2011B0313430393224B5246414606
:1004500005931A4802AB029701F056FD414601236D
:100460008B402268C846134323601B4B01249A46E5
:10047000FF239C460836114AB440B60053681C421C
:10048000FCD15046B358190A890041582029F5D0AB
:1004900067468F40B9464746484687436046034013
:1004A0008B4039001943884653681D42FCD14346AE
:1004B00001990B61E2E7C04698200010000020502F
:1004C00000808800020300019020001000808D0051
:1004D000882000105A03290848200010094A830088
:1004E00094464022634410B51C68C0006240C0249A
:1004F00014408022520113431C60034B9C4660440D
:10050000416010BD04C0014000400140EFF3108085
:1005100072B6034A1368002BFCD0BFF35F8F70479D
:100520002C0100D0BFF35F8F0022024B1A6080F3D2
:10053000108870472C0100D070B5EFF3108C72B6A4
:100540000D4D2B68002BFCD0BFF35F8F0724CB0829
:10055000C618C05C01230C40A3401C0004400342A9
:1005600007D103433370BFF35F8F2C608CF3108887
:1005700070BD100000F062FF2C0100D0F8B54746B6
:10058000CE46884680B5EFF3108C72B6214D2C68AC
:10059000002CFCD0BFF35F8F9A422CD8D4080727D9
:1005A000055D061901241740BC402C421FD00721CD
:1005B0000127894609E0D408055D06194C46390033
:1005C0001440A1400C00294211D001329342F2D2D2
:1005D00001204042BFF35F8F00220E4B1A608CF364
:1005E000108800280FDBC0BCB946B046F8BD2C43CC
:1005F00010003470EEE7BFF35F8F00232B608CF3A5
:100600001088012040424346002BECD0089800F0AF
:1006100015FFC0462C0100D0024B18688007C00FA0
:100620007047C04600C006400021044B044ABFF397
:100630005F8F02C39342FAD17047C046000100D0D9
:10064000800100D0044A1078431CDBB2172B00D97C
:10065000102313707047C046B4020020012383406A
:10066000002904D0034A1360034A13607047034A09
:100670001360FBE780E200E000E100E080E100E0E1
:10068000024B10309B688000C058704700ED00E0BE
:1006900070B50D00EFF3108672B60F4A1368002B89
:1006A000FCD0BFF35F8F0D4B10309B6884001B594B
:1006B0000B4A934203D09D4201D000F0D7FE074B76
:1006C0009B681D51BFF35F8FBFF35F8F0022024B0A
:1006D0001A6086F3108870BD240100D000ED00E0A0
:1006E000CD010010F0B5DE4657464E464546E0B512
:1006F0000C0083B0EFF3108A72B65A4A1368002BCD
:10070000FCD0BFF35F8F1022914681444A46564B7E
:1007100096009B689D59554B98469D4205D0A54231
:1007200016D0534FEB1B2F2B14D94F4B9B689D5169
:10073000BFF35F8FBFF35F8F00224A4B1A608AF3CB
:10074000108803B0F0BCBB46B246A946A046F0BD37
:100750001D00EAE7012383409B465A46454B1B6830
:100760001A4000925A46444B1A60BFF35F8FFFF75E
:100770007AFD0190002803D0814501D000F076FE7B
:1007800001232A009A4393689C4208D15FE04B0002
:100790005B189B00FB189968A14211D01A00062132
:1007A00051560029F3DA009B002B05D05A46334BF3
:1007B0001A60304B1A60B8E75A462F4B1A60B4E7FC
:1007C00006215956002921DB4A00501880003C18A8
:1007D0008046A0689860E079D8710620205698710C
:1007E000002824DBA488F81A640524154444001961
:1007F000E0240005400D2402204398805218204B2D
:100800009200BF181A781970BA71CCE701990029C3
:1008100010D1FF3191711B49918019490A789A7161
:10082000194ADB1B5B415A43120D0A70BBE7BD201E
:100830000002E2E7154A1649D21A083A5002400D62
:1008400001439980134952080A43DA80ABE7062135
:10085000515613000029B7DA019A002AEAD1454619
:10086000DBE7C046240100D000ED00E0CD01001020
:10087000B802002000E100E080E100E080E200E05A
:100880004B08002000BDFFFFAAAA0000F2020020D2
:1008900000F0FFFF00F8FFFFF8B501250400054355
:1008A000FFF7E1FCEFF3108C72B6214A1368002BBE
:1008B000FCD0BFF35F8F1F4E2100B7681E4A1F4B4D
:1008C000891A49414B431B0D59B28300F858A8427D
:1008D0001CD00623D3568B421CD01223D3568B42F6
:1008E00022D01E23D3568B4220D02A23D356032056
:1008F0008B4210D0124B1A781970A271BFF35F8F20
:1009000000220B4B1A608CF31088F8BDB2680D48BA
:10091000D050EFE7002043001B189B00D218FF23A4
:100920009371094B9380E5E70120F4E70220F2E799
:10093000240100D000ED00E0B8020020AAAA0000C7
:100940004B080020CD01001000BDFFFF054B064AFB
:100950001360064A136053609360D3601361536160
:10096000936170478080808000E400E004E400E050
:10097000024B9C466144890001607047400000348E
:1009800083680B4810B58446614462440901120132
:100990009A18591854684B6801209C4201D802D01B
:1009A0000020C0B210BD12680B689A42F9D8F7E770
:1009B000FFFFFF0FF8B557464E464546DE46E0B509
:1009C00099460CAB1C780DAB1B78060090469A46F6
:1009D0000768002C11D1BC7B002C42D065003B681D
:1009E0002D19033D59194B78BB73002B00D1FB73B4
:1009F00000238B704B700B7004E065003B682D1971
:100A0000033D5919B2682A4B94464246E3181B012C
:100A100063441A604A465A600A9A9A600B9ADA60EE
:100A200000238B704B700B707B7B9B46002B2BD075
:100A300022005946B8687B6898473A68002816D063
:100A40005B4658465B005B445519033BA870D118C0
:100A5000D35C002B00D06B705B460C707B73A3459E
:100A600013D0F0BCBB46B246A946A046F8BD5B46D3
:100A70005B005B44033BD3189C705119525D002A04
:100A800000D05A705B460B707C7342464B46307DFB
:100A900000F0DEF9051E06D05346002B03D12100DD
:100AA000306800F0F7FB0E9B002BDAD01D70D8E702
:100AB000FFFFFF0FF0B5DE464E4657464546002382
:100AC000E0B58DB00A936B4B8200D3580B909946DA
:100AD00000239B464B46079300F06AF9079C0600EB
:100AE0000F006268EFF3108572B61368002BFCD01C
:100AF00022000794BFF35F8F2468637B9946002B25
:100B000067D092685C4B90464B441B019844434627
:100B10001A685B6810001900801BB94100295FDD6D
:100B20000B9800F095F900230026984600279A4676
:100B3000079C6368BFF35F8F5A461A6085F310887D
:100B40005346002B08D10028C6D10DB0F0BCBB46DF
:100B5000B246A946A046F0BD0A9B414618024B4644
:100B60001843D047089009916268EFF3108572B678
:100B70001368002BFCD00794BFF35F8F0899099A84
:100B8000002A48DB114303D0079B1B69002B5DD172
:100B9000079B1B68D97B002907D04A0052181968A7
:100BA0008C4649466244033A51704A46DA734B46D2
:100BB000079A013BD168CA5C0132CA545B46079A66
:100BC00013615368BFF35F8F5A461A6085F310882C
:100BD00082E700230026984600279A460020A7E7D0
:100BE000002901D100289BD10021200000F0D4FA77
:100BF00043461E685F689B68079A9A464346DB68CF
:100C00009846D3684B44013B1B780A931B0203436D
:100C1000136100208CE72369002BB9D033003C001E
:100C20005B1A94411A002300A74219D89F421BD097
:100C3000594604910121039149460291414601918F
:100C4000514607980091FFF7B5FEB7E700F0B0F8FE
:100C5000089A099B06000F0092197B419942E5D939
:100C600001225242D317E3E79642E1D901225242D0
:100C7000D317DDE718080020FFFFFF0F10B5124C57
:100C80006368002B04D00A211048FFF771FE10BDE5
:100C900023000F4A1021206800F09CF9032000F087
:100CA0007BF8032000F044F903200A4900F08AF899
:100CB000FFF7C8FC084B9C46032360442375074B91
:100CC00080006060DC60DEE7000300203408002064
:100CD00081090010B50A00104000003418080020F7
:100CE000F0B5D6464F464646C0B5EFF305833F22E2
:100CF000134018001038EFF3108C72B6204D2A689C
:100D0000002AFCD0BFF35F8F0122110081401D4CEF
:100D1000884661631C4917000E788A463100C1403D
:100D20000F400A4209D1BFF35F8F2F608CF3108808
:100D3000E0BCBA46B146A846F0BD14498200646AD8
:100D400051588C420FD3124BD25843469E435346C0
:100D50001E70BFF35F8F00232B608CF31088002A76
:100D6000E6D09047E4E70B4A9B00904643441A685C
:100D70001A60BFF35F8F00232B608CF31088D7E7D6
:100D8000280100D0004005404C0800203808002011
:100D900094060020D03F054010B50100024A0348E8
:100DA000FFF7CAFB10BDC046E42000104908002030
:100DB000034B596A0A00986A596A8A42FAD1704705
:100DC0000040054070B504000D00EFF3108672B6C8
:100DD0001A4A1368002BFCD0BFF35F8F002D1BD085
:100DE0002000FFF74DFC164981420AD02000FFF792
:100DF0004FFC01212000FFF731FC0123A340114AE1
:100E00001360114BA400E550BFF35F8F00220B4B22
:100E10001A6086F3108870BD0B4BA200D5500122DA
:100E2000A2400A4920000B7893430B700449FFF756
:100E300059FC00212000FFF711FCE5E7280100D054
:100E4000E10C001038600540940600204C0800209A
:100E5000F0B54F46D6464646C0B507002F4C616AEE
:100E60000D00A66A616AA942FAD18B4208D805D062
:100E70000120E0BCBA46B146A846F0BDB242F7D95F
:100E8000EFF3108A72B6264801680029FCD0BFF340
:100E90005F8F0125BD402349204C8846097889464B
:100EA0002943C9B28C46414660460870391D1E4828
:100EB000890065630A51B9000B50216A002029425C
:100EC00019D0616A0800A66A616A8142FAD18B4230
:100ED00019D801D1B24216D8CC451DD00F4B1F20D6
:100EE0001D625D6301230740BB40104A1E3813603A
:100EF00043464A461A70BFF35F8F0022084B1A60C0
:100F00008AF31088B5E70020BFF35F8F0022044BFF
:100F10001A608AF31088ACE70120ECE70040054036
:100F2000280100D04C0800203808002080E200E0B2
:100F3000EFF3108C72B60A490B68002BFCD0BFF39C
:100F40005F8F01238340074A0748136202789A4360
:100F50000270BFF35F8F00230B608CF31088704723
:100F6000280100D0004005404C08002070B5050065
:100F700014001600002915D00C00002A12D0806839
:100F80006B689847296800280ED073009B1962008F
:100F9000033B1219CB18033A9C7088188A5C002A0C
:100FA00015D10670200070BD63001B197200033B51
:100FB0009219CB18033A9E7088188A5C002A02D1D5
:100FC00004703400EEE75A7004703400EAE75A7097
:100FD0000670E7E730B583600023CCB2437301337A
:100FE000047342608373C4730D000068012C06D93A
:100FF000421C0133DBB2137003329C42F9D1FF2152
:1010000029404B005918002340180338437030BD65
:10101000F8B5CE46474606000C0080B5002907D03B
:101020004D0003686D18033D5A195778002F04D1FD
:101030002000C0BCB946B046F8BD7900C9190339D3
:101040008846434459788946002159705170736825
:101050003A002100806898473368002814D042463F
:101060009A18947059195B5D002B00D053700F7063
:10107000270049463000FFF7CBFF3900020030005F
:10108000FFF774FF0400D3E7424641465D19AF7095
:101090009A185B5C002B00D06B701470E9E7C046B7
:1010A000F0B557464546DE464E46E0B50D006B00AE
:1010B00001685B19DF1E0400C85D83B00192CA1984
:1010C00000284CD043001B18033BCB185E78B44675
:1010D000002E16D1019E002E3ED0E67B002E04D0BD
:1010E00073009B19CB18033B5D70E57300282FD16B
:1010F0000023537003B0F0BCBB46B246A946A046DD
:10110000F0BD72006244033A89184A789046002282
:101110004A7091465A70010032002000FFF726FF06
:1011200043468246002B07D05B0021684344033BC3
:10113000CB185A78002A16D1424651462000FFF7B4
:1011400015FF2168019BCA19002BC6D10028CFD0FA
:1011500043001B18033BCB1800219970C8E7019B83
:10116000002BBAD1C4E7500080180338091848781A
:10117000834648464870587041462000FFF7F6FE07
:10118000594680462000FFF743FF414602002000F9
:10119000FFF7ECFE8046CFE7F0B557464546DE4602
:1011A0004E46E0B583B00191457B04006B000068BA
:1011B0005B19DF1EC15DC21900294ED04B005B18C0
:1011C000033BC3185E78B446002E18D1019E002E52
:1011D00040D0E67B002E04D073009B19C318033B5C
:1011E0005D70E573002931D10023280053706173CD
:1011F00003B0F0BCBB46B246A946A046F0BD7200A3
:101200006244033A80184278904600224270914628
:101210005A7020003200FFF7A9FE43468246002B99
:1012200007D05B0021684344033BCB185A78002A5F
:1012300017D1424651462000FFF798FE019B01005E
:101240002068C219002BC4D10029CDD04B005B18F7
:10125000033BC31800209870C6E7019B002BB8D150
:10126000C2E750008018033809184878834648467A
:101270004870587041462000FFF778FE5946804676
:101280002000FFF7C5FE414602002000FFF76EFE7A
:101290008046CEE770B5040000292CD0437B8B42FA
:1012A0002ED0056848004018033828188278002A94
:1012B00021D053009B18033BEA5CEE188A4202D10E
:1012C0001BE0002A08D053009B18033BEB185A7808
:1012D0008A42F6D142785A7000230122837043700B
:1012E0002000FFF7DDFE617B02002000FFF73EFEDD
:1012F0006073012000E0002070BD43783370EBE79D
:1013000001221900FFF7CCFE60730120F4E7C0460C
:1013100010B50400FFF796F901002000FFF728FB45
:10132000FF232371BFF35F8F10BDC04610B50400CB
:10133000FFF788F901002000FFF71AFBFF23A380C5
:10134000BFF35F8F10BDC0462C4B2D4A70B51A609D
:101350002C4A2D4B2D491A6014008B689C43FBD1FD
:101360002B4D2C4EB54208D2013E761BB60808CD57
:10137000984723000134B342F9D100F07DF8264AA2
:10138000214B1A60214A9368DB43DB01DD09002B06
:10139000F9D14022214B224C224E9A675A671A6794
:1013A000DA66B44208D223682000002B20D008342B
:1013B000FFF7BCFFB442F6D31B4E1C4CC022A16801
:1013C000300000F061FBA660FFF72EF9FFF7BEFAD0
:1013D000FFF754FC164C174EB44208D2013E361BA0
:1013E000B60808CC98472B0001359E42F9D170BD54
:1013F0000834FFF78DFFB442D5D3DDE700E00040AD
:10140000BFCDFBFEFE7F3C0000F0004000C000406E
:101410005803002068030020FFFFFF0100F0014097
:1014200050030020580300200000002000ED00E0E1
:10143000680300207003002000BEFDE70FB400B574
:10144000084883B000F056FC049B002B07D005A988
:101450001800019100F0EAF9034800F04BFC00BECF
:10146000FDE7C046082100101821001010B5014802
:10147000FFF7E4FF1C21001030B50C2083B000F012
:10148000B1F9FFF7C9F800280ED0944B944A1A60BE
:101490005A609A60DA601A615A619A61DA611A6276
:1014A000904A5A6203B030BD8F4CA06700F0A2F999
:1014B00001228E4B1A60636C012BFCD103228C4BF2
:1014C0001A60894A936B012BFCD101330121894AAF
:1014D00089480093043300F02DF90523874A0093CF
:1014E0000121874800F026F9864B5A68FF2A02D866
:1014F000802252005A608022784C7D4B2169120173
:10150000804D1A60002905D0606900F0E1F90130D2
:101510000138FDD1E0217B4B02201A681140802266
:1015200052012A43116019684840032101401160AB
:1015300004219A681142FCD08022802192012A4322
:1015400009011160802252005A606F4B23616F4B7A
:101550005968FF2900D85A600321644A6B4B116017
:1015600002399A681142FCD0E0201A6810408022AB
:1015700052011A43106018684840032101400220BC
:10158000116062498A681042FCD0802292011343A4
:10159000802212011A6080225D4B52004A60636112
:1015A0005C4B5968FF2900D85A6080225A4BE16988
:1015B0001201584D1A60002905D0606900F088F9C1
:1015C00001300138FDD1E02252490B681A408023D6
:1015D0005B012B431A60802380229B012B43120165
:1015E0001A6080223E4B52004A60E3614B4B5968BF
:1015F000FF2900D85A608022494B216A1201474DC9
:101600001A60002905D0606900F062F901300138E4
:10161000FDD1E02241490B681A4080235B012B4336
:101620001A60802380229B012B4312011A608023C1
:1016300080225B004B602A4BD2022362394B5968EF
:10164000914200D25A608022374B616A1201354DB7
:101650001A60002905D0606900F03AF901300138BC
:10166000FDD1E0222F490B681A4080235B012B43F8
:101670001A60802380229B012B4312011A60802371
:10168000DB024B60174B6362284B5A68FF2A02D873
:10169000802252005A608022254BA1691201234DFD
:1016A0001A60002905D0606900F012F90130013894
:1016B000FDD1E0221D490B681A4080235B012B43BA
:1016C0001A60802380229B012B4312011A60802321
:1016D0005B004B600E4BA361E4E6C046A40700200C
:1016E000006CDC021BB70000008000403CB00040F2
:1016F00030B00040002F685900800240008C8647BF
:1017000000C0024030800040001BB7003C80004019
:10171000405973075480004054B00040608000403E
:1017200060B000406C8000406CB0004048800040D9
:1017300048B00040F0B5C646040000B50C20904605
:101740001F000E0000F0C4F84101091A8D01691A4A
:10175000C90009188901404600F0BAF8069B3F0409
:101760001A0323681743002B22DB1A4B1A4DE21889
:1017700053425A4180235B019C461203174B62443B
:101780001A60174B1A601100AB689943FBD1C02255
:10179000231D92011A4321232660A0601360236851
:1017A000002BFCDA0823E760136080BCB846F0BD6C
:1017B0003F2322681340B342D7D1A3681B051B0DFA
:1017C0008342D2D1EE22E368D2021340BB42CCD195
:1017D000EBE7C0460040FDBF00C0004000E0004015
:1017E00000F000408023024A9B000343D36270470D
:1017F00000800540AA23064A1B0113602F230549D8
:10180000D360054B19605368002BFCDA7047C04663
:101810000040024000B0FA000060024010B500280D
:1018200000D110BD00F016FAFBE7C04610B5094A1A
:101830000300146884B0002C08D0012200910648EF
:10184000524203A9A047012004B010BD00F052FA93
:101850000020F9E7140800201D1800100148042199
:10186000014B1847300300208D180010142310B5C9
:101870000100188804331B88984710BD162310B543
:101880000100188802331B88984710BDF8B54746F9
:10189000CE4680B50F1E19D0142399460433040098
:1018A0000025012698464B461888434621681B8828
:1018B000984701C4431E9841013540420640AF425B
:1018C000F1D13000C0BCB946B046F8BD0126F8E7FA
:1018D000114A936F9B0813D210665166002905D0F8
:1018E000FFE7FFE7FFE7516F106F704704B500286F
:1018F00001D00020C04300F08FFB002104BDC04692
:10190000F0B5146E556E576F166FFFF7E5FF14664E
:10191000556657671667F0BD000000D0132370B5F9
:101920001D78012D15D010DD1C48FFF7A7FF1C4CBA
:1019300001008022200000F0A7F8022D06D01948EF
:10194000FFF794FF184B186070BD154C174BA3643C
:10195000F5E7164B124C23606360A360E3602361DC
:101960006361A361E36123626362A362E362236351
:101970006363A363E36323646364A364E364236531
:101980006365A365E36523666366A366E366236711
:101990006367A367E367A364D1E7C04653440000CD
:1019A000700400204C33000030080020B1190010F2
:1019B00007B5604601880A0A0230DF2AFAD1C9B2A7
:1019C000820804D3028840880004104300E00068C5
:1019D000014A5050039007BD70040020132310B536
:1019E00012481C78FFF74AFF0100012C0AD003DDE2
:1019F00080220F4800F048F80E48FFF737FF0E4BE3
:101A0000186010BD0A4C5422200000F03DF80B4B2A
:101A10006365A365E36523666366A366E366236780
:101A20006367A367E3672362E361E5E7534600006A
:101A3000700500204C33000030080020411A0010CF
:101A400007B5604601880A0A0230DF2AFAD1C9B216
:101A5000820804D3028840880004104300E0006834
:101A6000014A5050039007BD700500200148042131
:101A7000014B1847400300208D180010014B1B68D4
:101A80001847000040030020014B5B681847000026
:101A900040030020030010B5080011001B689847A0
:101AA00010BDC046F0B546464F46D646C0B5437C4D
:101AB00080460E001700002B46D0002A3FDD4B1E4B
:101AC0009946244B0125002400209A460DE04B4600
:101AD0001B5D0D3B5A425341325DDBB20A2A0BD0EB
:101AE0002B00013401359F421ADD002CEFD1434613
:101AF000325D1B7C0A2AF3D1002BF1D1A04204DA1B
:101B00004346211A1B6830189847434650461B68C5
:101B100002219847013428002B0001359F42E4DC64
:101B2000874204DD4346391A1B6830189847F61976
:101B3000013E33780D3B5A42534142461374E0BC98
:101B4000BA46B146A846F0BD036811003000984778
:101B5000F5E7C0469C210010F0B557464E46454675
:101B6000DE461C00D023E0B51B061F68344B83B053
:101B700006000D00180001A991469A4600F054FA9B
:101B80008046002808D1019B7FB29F4204D0504676
:101B900000F052FA012398466B1C03D1300000F08C
:101BA000FBF90500002C27D1264F274B1C68002C81
:101BB00018D04B46002B21D1244B994602E0E46813
:101BC000002C0FD02368002BF9D04B461B68002B4C
:101BD00001D0A342F3D120002A003100B847E468C5
:101BE000002CEFD14346002B25D103B0F0BCBB46FF
:101BF000B246A946A046F0BD154FD6E7134B99460D
:101C00000A239B4602E0E468002CEBD02368002BFB
:101C1000F9D04B461B68002B01D0A342F3D12A0018
:101C200031002000B8475A466B4620001A7101A9BE
:101C30000122B847E7E7504600F0E6F9D5E7C0468D
:101C400050030020A51A00100C08002010080020E6
:101C5000951A0010F0B5CE46474680B583B06B4666
:101C6000DE1CD02330701B061C681F4B804601A968
:101C70001800994600F0D8F9071E20D01B4B1C68AD
:101C8000002C28D01A4D02E0E468002C0FD0236805
:101C9000002BF9D02B68002B01D0A342F4D12000F7
:101CA00001223100FFF7FEFEE468002CEFD1002F87
:101CB00011D1404603B0C0BCB946B046F0BD019B4F
:101CC00064B29C420BD0484600F0B6F9074B01279E
:101CD0001C68002CD6D1484600F096F9E9E7034B82
:101CE0001C68002CCED1E4E7500300200C08002033
:101CF0001008002070B5040000F04EF90023010028
:101D0000050001222000FFF727FF084B1C68002C6C
:101D100006D06368002B05D09847E468002CF8D102
:101D2000280070BDE468002CF3D1F9E70C0800200E
:101D300010B5024800F004F810BDC0462808002085
:101D400030B5002589B004000922002101A80095C2
:101D5000FFF794FE0922002105A80495FFF78EFEE7
:101D60004B236A466846137004A90D2200F044F91B
:101D70001521082220006944FFF786FE09B030BD16
:101D80000B4B10B59C46604443425841094A8400BD
:101D900082B0009208482200E31CFEF7EFFB844269
:101DA00002DC001B02B010BD01204042FAE7C04631
:101DB0000000D0AFA02100104A080020F0B5D646A0
:101DC0004F4646468846C0B505240600FEF79EFBF2
:101DD00043461F791C57284B8146F018434258410F
:101DE000264B9A4683009C465346624698580122E9
:101DF0002023BA40DB1B013A002C32DB9C422DDC55
:101E0000A2401500104229D1002F1AD043465A781B
:101E100019781202114342469B78D2781B040B4377
:101E200012061A439046002241465300C95A4B0BF2
:101E300000D10919131912339B00013299519742AD
:101E4000F2D85346624605439D504846FEF76AFB6A
:101E50002000E0BCBA46B146A846F0BD0848FFF7EE
:101E6000EDFA002B02DAF9E7013BF7D315009D40AC
:101E70001C000542F8D1C7E70000D0AF8C06002057
:101E8000C4210010F0B54E464546DE4657468A4608
:101E90004900E0B50D0080465544ED0045448946B3
:101EA000290009AC2678DC31741EA641086874420A
:101EB000844614481F26834626405E44052B0CD9D1
:101EC000A0201F274005D835540104430532053BA7
:101ED0000C603A402E60052BF6D849465144C900A3
:101EE000414452019B0613430A000800DC32136090
:101EF0006346D83006601360F0BCBB46B246A946C4
:101F0000A046F0BD80E00000F0B501258D400468DA
:101F1000AC434D0004606C18E40004192600C83678
:101F2000002B2AD01F68DC3437605F6877609F68B9
:101F3000DB68B76023606D18EB001D008024D0358E
:101F4000451964012C4380252D0625602560114C20
:101F50000D1D8C40846001242700AF403D000831F6
:101F60008C401F2106680A403543056005682C43F4
:101F70000460C018D8300260F0BD80277F0237604F
:101F8000F8277F027760C027DC343F03B760236007
:101F9000D1E7C0460101010110B583070AD0030053
:101FA000032102E001330B4205D01A78002AF9D14F
:101FB000181A10BD030019680C4A0D4C8A188A4380
:101FC00022420FD15968094A04338A188A432242AF
:101FD00008D15968054A04338A188A432242F1D04D
:101FE00000E001331A78002AFBD1E1E7FFFEFEFE94
:101FF00080808080F8B5C04601B40248844601BCA8
:10200000604700BFED01002001B40248844601BCD6
:10201000604700BF4D01002001B40248844601BC66
:10202000604700BFB102002001B40248844601BCF1
:10203000604700BF0901002001B40248844601BC8A
:08204000604700BFC100002051
:102048002000000020000000200000002000000008
:102058002000000010000000200000001800000010
:102068002000000000000000200000001000000018
:1020780020000000200000002000000020000000D8
:10208800A02000100BFF0000B820001008FF00007F
:10209800C82000100DFF000003E01620E0A021601A
:1020A8004160A80003E00A00226701A09620000012
:1020B800162007A0CC60216026000700208096200B
:1020C8001620E0A0C1604160808027A06800706091
:1020D80046A06B0068600860962000004861726442
:1020E8007761726520616C61726D20256420616C76
:1020F800726561647920636C61696D6564000000D4
:102108000A2A2A2A2050414E4943202A2A2A0A000C
:102118000A0000004861726420617373657274007C
:1021280052656C6561736500626F6F74325F7732F8
:102138003571303830000000312E342E3000000068
:102148007069636F000000006D656761636F6E5FA3
:102158006B5F747970655F636F6D70617469626CD1
:102168006500000053657020323120323032320071
:1021780006005250BBFF3CB64821001006005250E2
:10218800E182887F3021001006005250D3F075425A
:10219800282100100D0A00004E6F2050494F20736F
:1021A80074617465206D616368696E65732061721E
:1021B8006520617661696C61626C65004E6F2070A4
:1021C800726F6772616D2073706163650000000053
:1021D800B4020010A80200109C0200107821001020
:0C21E800900200108421001090210010D3
:1021F400D02330B500251B0600245D5706E0036894
:10220400BFF35F8F1C6081F3108820BF0268EFF377
:10221400108172B61368002BFCD0BFF35F8F037973
:102224007F2BECD905710368BFF35F8F00221A601E
:1022340081F3108830BDC04603000068EFF3108CB2
:1022440072B60268002AFCD0BFF35F8F04229A564C
:10225400002A0BDB00290FD000200A601B68BFF3A3
:102264005F8F00221A608CF310887047D022120608
:10227400126801201A71F1E70020EFE70268EFF31A
:10228400108172B61368002BFCD0BFF35F8FFF235D
:1022940003710368BFF35F8F00221A6081F3108813
:1022A40040BF7047084810B50378002B0AD180233B
:1022B4000649074A5B051C68CC5004339342FAD1A3
:1022C4000123037010BDC04648080020A406001076
:1022D4000001001010B5024B0133984710BDC046F1
:1022E400A4060020034B1A68C0239B009343024AB0
:1022F400136070470C8001400C900140054B1A6834
:1023040080239B005340C02292001340024A136072
:102314007047C0460C8001400C9001401423F0B576
:10232400D6464F4646469A46814618880433C0B579
:1023340098460E001B882749140098475346070007
:102344001888434624491B88984753460500188833
:10235400434622491B8898478046FFF7A3FFB847A6
:10236400A847FFF7CBFF002C1BD0C0212200082771
:10237400022049053D008B6A1D4018420BD0002CF9
:1023840009D0131B0D2B1FD84B461B78013C0B6641
:1023940001239C46E1442300002D0CD11343002B60
:1023A400E8D1FFF79FFFC047FFF794FFE0BCBA46B0
:1023B400B146A846F0BD002AF1D00B6E013A337045
:1023C400130001362343EAE7002DD3D0002AD1D0ED
:1023D400F3E7C04649460000455800004643000064
:1023E4007047C0461000000000000000000001001B
:1023F40000000000000000000000020000000000D7
:1024040000000000000003000000000000000000C5
:102414000000FF000000000000B5486801318E464E
:102424000047704609380149884700BD99080010E3
:10243400180300200000000070030020CC070020D7
:102444000000000000000000DC0700200000000085
:102454000000000010000000000000000000000068
:10246400503300004C33000054330000523300005A
:102474004D5300004D43000053340000433400002A
:1024840000000000000000006D1A00105D1800102C
:102494001D190010DD190010ED020010311D00108F
:04000005100001E9FD
:00000001FF
